{
  "contractName": "Voting",
  "abi": [
    {
      "inputs": [
        {
          "internalType": "string[]",
          "name": "candidateNames",
          "type": "string[]"
        }
      ],
      "stateMutability": "nonpayable",
      "type": "constructor"
    },
    {
      "anonymous": false,
      "inputs": [
        {
          "indexed": false,
          "internalType": "address",
          "name": "voter",
          "type": "address"
        },
        {
          "indexed": false,
          "internalType": "uint256",
          "name": "candidateId",
          "type": "uint256"
        }
      ],
      "name": "Voted",
      "type": "event"
    },
    {
      "anonymous": false,
      "inputs": [
        {
          "indexed": false,
          "internalType": "address",
          "name": "voter",
          "type": "address"
        }
      ],
      "name": "VoterDisqualified",
      "type": "event"
    },
    {
      "anonymous": false,
      "inputs": [
        {
          "indexed": false,
          "internalType": "address",
          "name": "voter",
          "type": "address"
        }
      ],
      "name": "VoterRegistered",
      "type": "event"
    },
    {
      "inputs": [
        {
          "internalType": "uint256",
          "name": "",
          "type": "uint256"
        }
      ],
      "name": "candidates",
      "outputs": [
        {
          "internalType": "uint256",
          "name": "id",
          "type": "uint256"
        },
        {
          "internalType": "string",
          "name": "name",
          "type": "string"
        },
        {
          "internalType": "uint256",
          "name": "voteCount",
          "type": "uint256"
        }
      ],
      "stateMutability": "view",
      "type": "function",
      "constant": true
    },
    {
      "inputs": [],
      "name": "electionCommission",
      "outputs": [
        {
          "internalType": "address",
          "name": "",
          "type": "address"
        }
      ],
      "stateMutability": "view",
      "type": "function",
      "constant": true
    },
    {
      "inputs": [],
      "name": "totalVotes",
      "outputs": [
        {
          "internalType": "uint256",
          "name": "",
          "type": "uint256"
        }
      ],
      "stateMutability": "view",
      "type": "function",
      "constant": true
    },
    {
      "inputs": [
        {
          "internalType": "address",
          "name": "",
          "type": "address"
        }
      ],
      "name": "voters",
      "outputs": [
        {
          "internalType": "bool",
          "name": "isRegistered",
          "type": "bool"
        },
        {
          "internalType": "bool",
          "name": "hasVoted",
          "type": "bool"
        },
        {
          "internalType": "bool",
          "name": "isDisqualified",
          "type": "bool"
        },
        {
          "internalType": "uint256",
          "name": "vote",
          "type": "uint256"
        }
      ],
      "stateMutability": "view",
      "type": "function",
      "constant": true
    },
    {
      "inputs": [
        {
          "internalType": "address",
          "name": "voterAddress",
          "type": "address"
        }
      ],
      "name": "registerVoter",
      "outputs": [],
      "stateMutability": "nonpayable",
      "type": "function"
    },
    {
      "inputs": [
        {
          "internalType": "address",
          "name": "voterAddress",
          "type": "address"
        }
      ],
      "name": "disqualifyVoter",
      "outputs": [],
      "stateMutability": "nonpayable",
      "type": "function"
    },
    {
      "inputs": [
        {
          "internalType": "uint256",
          "name": "candidateId",
          "type": "uint256"
        }
      ],
      "name": "vote",
      "outputs": [],
      "stateMutability": "nonpayable",
      "type": "function"
    }
  ],
  "bytecode": "0x60806040523480156200001157600080fd5b506040516200152738038062001527833981810160405281019062000037919062000313565b336000806101000a81548173ffffffffffffffffffffffffffffffffffffffff021916908373ffffffffffffffffffffffffffffffffffffffff16021790555060005b8151811015620001575760026040518060600160405280838152602001848481518110620000d1577f4e487b7100000000000000000000000000000000000000000000000000000000600052603260045260246000fd5b6020026020010151815260200160008152509080600181540180825580915050600190039060005260206000209060030201600090919091909150600082015181600001556020820151816001019080519060200190620001349291906200015f565b5060408201518160020155505080806200014e9062000464565b9150506200007a565b50506200053f565b8280546200016d906200042e565b90600052602060002090601f016020900481019282620001915760008555620001dd565b82601f10620001ac57805160ff1916838001178555620001dd565b82800160010185558215620001dd579182015b82811115620001dc578251825591602001919060010190620001bf565b5b509050620001ec9190620001f0565b5090565b5b808211156200020b576000816000905550600101620001f1565b5090565b60006200022662000220846200038c565b62000358565b9050808382526020820190508260005b858110156200026a57815185016200024f8882620002e6565b84526020840193506020830192505060018101905062000236565b5050509392505050565b60006200028b6200028584620003bb565b62000358565b905082815260208101848484011115620002a457600080fd5b620002b1848285620003f8565b509392505050565b600082601f830112620002cb57600080fd5b8151620002dd8482602086016200020f565b91505092915050565b600082601f830112620002f857600080fd5b81516200030a84826020860162000274565b91505092915050565b6000602082840312156200032657600080fd5b600082015167ffffffffffffffff8111156200034157600080fd5b6200034f84828501620002b9565b91505092915050565b6000604051905081810181811067ffffffffffffffff8211171562000382576200038162000510565b5b8060405250919050565b600067ffffffffffffffff821115620003aa57620003a962000510565b5b602082029050602081019050919050565b600067ffffffffffffffff821115620003d957620003d862000510565b5b601f19601f8301169050602081019050919050565b6000819050919050565b60005b8381101562000418578082015181840152602081019050620003fb565b8381111562000428576000848401525b50505050565b600060028204905060018216806200044757607f821691505b602082108114156200045e576200045d620004e1565b5b50919050565b60006200047182620003ee565b91507fffffffffffffffffffffffffffffffffffffffffffffffffffffffffffffffff821415620004a757620004a6620004b2565b5b600182019050919050565b7f4e487b7100000000000000000000000000000000000000000000000000000000600052601160045260246000fd5b7f4e487b7100000000000000000000000000000000000000000000000000000000600052602260045260246000fd5b7f4e487b7100000000000000000000000000000000000000000000000000000000600052604160045260246000fd5b610fd8806200054f6000396000f3fe608060405234801561001057600080fd5b506004361061007d5760003560e01c806338db6dd31161005b57806338db6dd3146100ee5780634135d2951461010a578063a3ec138d14610126578063aab46b7f146101595761007d565b80630121b93f146100825780630d15fd771461009e5780633477ee2e146100bc575b600080fd5b61009c600480360381019061009791906109bc565b610177565b005b6100a66104c3565b6040516100b39190610d9a565b60405180910390f35b6100d660048036038101906100d191906109bc565b6104c9565b6040516100e593929190610db5565b60405180910390f35b61010860048036038101906101039190610993565b61058b565b005b610124600480360381019061011f9190610993565b61073d565b005b610140600480360381019061013b9190610993565b6108ee565b6040516101509493929190610c75565b60405180910390f35b610161610945565b60405161016e9190610c31565b60405180910390f35b600160003373ffffffffffffffffffffffffffffffffffffffff1673ffffffffffffffffffffffffffffffffffffffff16815260200190815260200160002060000160019054906101000a900460ff1615610207576040517f08c379a00000000000000000000000000000000000000000000000000000000081526004016101fe90610d7a565b60405180910390fd5b600160003373ffffffffffffffffffffffffffffffffffffffff1673ffffffffffffffffffffffffffffffffffffffff16815260200190815260200160002060000160009054906101000a900460ff16610296576040517f08c379a000000000000000000000000000000000000000000000000000000000815260040161028d90610d1a565b60405180910390fd5b600160003373ffffffffffffffffffffffffffffffffffffffff1673ffffffffffffffffffffffffffffffffffffffff16815260200190815260200160002060000160029054906101000a900460ff1615610326576040517f08c379a000000000000000000000000000000000000000000000000000000000815260040161031d90610cda565b60405180910390fd5b600280549050811061036d576040517f08c379a000000000000000000000000000000000000000000000000000000000815260040161036490610d5a565b60405180910390fd5b60018060003373ffffffffffffffffffffffffffffffffffffffff1673ffffffffffffffffffffffffffffffffffffffff16815260200190815260200160002060000160016101000a81548160ff02191690831515021790555080600160003373ffffffffffffffffffffffffffffffffffffffff1673ffffffffffffffffffffffffffffffffffffffff1681526020019081526020016000206001018190555060028181548110610448577f4e487b7100000000000000000000000000000000000000000000000000000000600052603260045260246000fd5b9060005260206000209060030201600201600081548092919061046a90610ebc565b91905055506003600081548092919061048290610ebc565b91905055507f4d99b957a2bc29a30ebd96a7be8e68fe50a3c701db28a91436490b7d53870ca433826040516104b8929190610c4c565b60405180910390a150565b60035481565b600281815481106104d957600080fd5b906000526020600020906003020160009150905080600001549080600101805461050290610e8a565b80601f016020809104026020016040519081016040528092919081815260200182805461052e90610e8a565b801561057b5780601f106105505761010080835404028352916020019161057b565b820191906000526020600020905b81548152906001019060200180831161055e57829003601f168201915b5050505050908060020154905083565b60008054906101000a900473ffffffffffffffffffffffffffffffffffffffff1673ffffffffffffffffffffffffffffffffffffffff163373ffffffffffffffffffffffffffffffffffffffff1614610619576040517f08c379a000000000000000000000000000000000000000000000000000000000815260040161061090610cba565b60405180910390fd5b600160008273ffffffffffffffffffffffffffffffffffffffff1673ffffffffffffffffffffffffffffffffffffffff16815260200190815260200160002060000160009054906101000a900460ff16156106a9576040517f08c379a00000000000000000000000000000000000000000000000000000000081526004016106a090610cfa565b60405180910390fd5b60018060008373ffffffffffffffffffffffffffffffffffffffff1673ffffffffffffffffffffffffffffffffffffffff16815260200190815260200160002060000160006101000a81548160ff0219169083151502179055507fb6be2187d059cc2a55fe29e0e503b566e1e0f8c8780096e185429350acffd3dd816040516107329190610c31565b60405180910390a150565b60008054906101000a900473ffffffffffffffffffffffffffffffffffffffff1673ffffffffffffffffffffffffffffffffffffffff163373ffffffffffffffffffffffffffffffffffffffff16146107cb576040517f08c379a00000000000000000000000000000000000000000000000000000000081526004016107c290610cba565b60405180910390fd5b600160008273ffffffffffffffffffffffffffffffffffffffff1673ffffffffffffffffffffffffffffffffffffffff16815260200190815260200160002060000160009054906101000a900460ff1661085a576040517f08c379a000000000000000000000000000000000000000000000000000000000815260040161085190610d3a565b60405180910390fd5b60018060008373ffffffffffffffffffffffffffffffffffffffff1673ffffffffffffffffffffffffffffffffffffffff16815260200190815260200160002060000160026101000a81548160ff0219169083151502179055507f43e60438d4b1cf2ea3abdaa2481d2194a6d032562de915baef81464a2e2de91e816040516108e39190610c31565b60405180910390a150565b60016020528060005260406000206000915090508060000160009054906101000a900460ff16908060000160019054906101000a900460ff16908060000160029054906101000a900460ff16908060010154905084565b60008054906101000a900473ffffffffffffffffffffffffffffffffffffffff1681565b60008135905061097881610f74565b92915050565b60008135905061098d81610f8b565b92915050565b6000602082840312156109a557600080fd5b60006109b384828501610969565b91505092915050565b6000602082840312156109ce57600080fd5b60006109dc8482850161097e565b91505092915050565b6109ee81610e0f565b82525050565b6109fd81610e21565b82525050565b6000610a0e82610df3565b610a188185610dfe565b9350610a28818560208601610e57565b610a3181610f63565b840191505092915050565b6000610a49602f83610dfe565b91507f4f6e6c7920656c656374696f6e20636f6d6d697373696f6e2063616e2063616c60008301527f6c20746869732066756e6374696f6e00000000000000000000000000000000006020830152604082019050919050565b6000610aaf602083610dfe565b91507f596f7520617265206469737175616c69666965642066726f6d20766f74696e676000830152602082019050919050565b6000610aef601b83610dfe565b91507f566f74657220697320616c7265616479207265676973746572656400000000006000830152602082019050919050565b6000610b2f601e83610dfe565b91507f596f75206d7573742062652061207265676973746572656420766f74657200006000830152602082019050919050565b6000610b6f601783610dfe565b91507f566f746572206973206e6f7420726567697374657265640000000000000000006000830152602082019050919050565b6000610baf601483610dfe565b91507f496e76616c69642063616e6469646174652049440000000000000000000000006000830152602082019050919050565b6000610bef601683610dfe565b91507f596f75206861766520616c726561647920766f746564000000000000000000006000830152602082019050919050565b610c2b81610e4d565b82525050565b6000602082019050610c4660008301846109e5565b92915050565b6000604082019050610c6160008301856109e5565b610c6e6020830184610c22565b9392505050565b6000608082019050610c8a60008301876109f4565b610c9760208301866109f4565b610ca460408301856109f4565b610cb16060830184610c22565b95945050505050565b60006020820190508181036000830152610cd381610a3c565b9050919050565b60006020820190508181036000830152610cf381610aa2565b9050919050565b60006020820190508181036000830152610d1381610ae2565b9050919050565b60006020820190508181036000830152610d3381610b22565b9050919050565b60006020820190508181036000830152610d5381610b62565b9050919050565b60006020820190508181036000830152610d7381610ba2565b9050919050565b60006020820190508181036000830152610d9381610be2565b9050919050565b6000602082019050610daf6000830184610c22565b92915050565b6000606082019050610dca6000830186610c22565b8181036020830152610ddc8185610a03565b9050610deb6040830184610c22565b949350505050565b600081519050919050565b600082825260208201905092915050565b6000610e1a82610e2d565b9050919050565b60008115159050919050565b600073ffffffffffffffffffffffffffffffffffffffff82169050919050565b6000819050919050565b60005b83811015610e75578082015181840152602081019050610e5a565b83811115610e84576000848401525b50505050565b60006002820490506001821680610ea257607f821691505b60208210811415610eb657610eb5610f34565b5b50919050565b6000610ec782610e4d565b91507fffffffffffffffffffffffffffffffffffffffffffffffffffffffffffffffff821415610efa57610ef9610f05565b5b600182019050919050565b7f4e487b7100000000000000000000000000000000000000000000000000000000600052601160045260246000fd5b7f4e487b7100000000000000000000000000000000000000000000000000000000600052602260045260246000fd5b6000601f19601f8301169050919050565b610f7d81610e0f565b8114610f8857600080fd5b50565b610f9481610e4d565b8114610f9f57600080fd5b5056fea2646970667358221220f5ce559183c370243d19f32daa6ac38b489bacbb2aaf49a297b6ad4bff00be2864736f6c63430008000033",
  "immutableReferences": {},
  "source": "// filepath: contracts/Voting.sol\npragma solidity ^0.8.0;\n\ncontract Voting {\n    struct Voter {\n        bool isRegistered;\n        bool hasVoted;\n        bool isDisqualified;\n        uint256 vote;\n    }\n\n    struct Candidate {\n        uint256 id;\n        string name;\n        uint256 voteCount;\n    }\n\n    address public electionCommission;\n    mapping(address => Voter) public voters;\n    Candidate[] public candidates;\n    uint256 public totalVotes;\n\n    event VoterRegistered(address voter);\n    event Voted(address voter, uint256 candidateId);\n    event VoterDisqualified(address voter);\n\n    modifier onlyElectionCommission() {\n        require(msg.sender == electionCommission, \"Only election commission can call this function\");\n        _;\n    }\n\n    modifier hasNotVoted() {\n        require(!voters[msg.sender].hasVoted, \"You have already voted\");\n        _;\n    }\n\n    constructor(string[] memory candidateNames) {\n        electionCommission = msg.sender;\n        for (uint256 i = 0; i < candidateNames.length; i++) {\n            candidates.push(Candidate(i, candidateNames[i], 0));\n        }\n    }\n\n    function registerVoter(address voterAddress) public onlyElectionCommission {\n        require(!voters[voterAddress].isRegistered, \"Voter is already registered\");\n        voters[voterAddress].isRegistered = true;\n        emit VoterRegistered(voterAddress);\n    }\n\n    function disqualifyVoter(address voterAddress) public onlyElectionCommission {\n        require(voters[voterAddress].isRegistered, \"Voter is not registered\");\n        voters[voterAddress].isDisqualified = true;\n        emit VoterDisqualified(voterAddress);\n    }\n\n    function vote(uint256 candidateId) public hasNotVoted {\n        require(voters[msg.sender].isRegistered, \"You must be a registered voter\");\n        require(!voters[msg.sender].isDisqualified, \"You are disqualified from voting\");\n        require(candidateId < candidates.length, \"Invalid candidate ID\");\n\n        voters[msg.sender].hasVoted = true;\n        voters[msg.sender].vote = candidateId;\n        candidates[candidateId].voteCount++;\n        totalVotes++;\n        emit Voted(msg.sender, candidateId);\n    }\n\n    // Add additional view functions as needed...\n}",
  "sourcePath": "/home/nanda/Downloads/blockchain-voting/blockchain-voting-truffle/contracts/Voting.sol",
  "compiler": {
    "name": "solc",
    "version": "0.8.0+commit.c7dfd78e.Emscripten.clang"
  },
  "schemaVersion": "3.4.16",
  "updatedAt": "2025-02-10T11:40:53.056Z",
  "networkType": "ethereum",
  "devdoc": {
    "kind": "dev",
    "methods": {},
    "version": 1
  },
  "userdoc": {
    "kind": "user",
    "methods": {},
    "version": 1
  }
}