{
  "_format": "hh-sol-artifact-1",
  "contractName": "Voting",
  "sourceName": "contracts/Voting.sol",
  "abi": [
    {
      "inputs": [
        {
          "internalType": "string[]",
          "name": "candidateNames",
          "type": "string[]"
        }
      ],
      "stateMutability": "nonpayable",
      "type": "constructor"
    },
    {
      "inputs": [
        {
          "internalType": "uint256",
          "name": "",
          "type": "uint256"
        }
      ],
      "name": "candidates",
      "outputs": [
        {
          "internalType": "uint256",
          "name": "id",
          "type": "uint256"
        },
        {
          "internalType": "string",
          "name": "name",
          "type": "string"
        },
        {
          "internalType": "uint256",
          "name": "voteCount",
          "type": "uint256"
        }
      ],
      "stateMutability": "view",
      "type": "function"
    },
    {
      "inputs": [],
      "name": "electionCommission",
      "outputs": [
        {
          "internalType": "address",
          "name": "",
          "type": "address"
        }
      ],
      "stateMutability": "view",
      "type": "function"
    },
    {
      "inputs": [],
      "name": "getResults",
      "outputs": [
        {
          "components": [
            {
              "internalType": "uint256",
              "name": "id",
              "type": "uint256"
            },
            {
              "internalType": "string",
              "name": "name",
              "type": "string"
            },
            {
              "internalType": "uint256",
              "name": "voteCount",
              "type": "uint256"
            }
          ],
          "internalType": "struct Voting.Candidate[]",
          "name": "",
          "type": "tuple[]"
        }
      ],
      "stateMutability": "view",
      "type": "function"
    },
    {
      "inputs": [
        {
          "internalType": "address",
          "name": "voterAddress",
          "type": "address"
        }
      ],
      "name": "getVoterInfo",
      "outputs": [
        {
          "internalType": "bool",
          "name": "",
          "type": "bool"
        },
        {
          "internalType": "bool",
          "name": "",
          "type": "bool"
        },
        {
          "internalType": "uint256",
          "name": "",
          "type": "uint256"
        }
      ],
      "stateMutability": "view",
      "type": "function"
    },
    {
      "inputs": [
        {
          "internalType": "address",
          "name": "voterAddress",
          "type": "address"
        }
      ],
      "name": "registerVoter",
      "outputs": [],
      "stateMutability": "nonpayable",
      "type": "function"
    },
    {
      "inputs": [],
      "name": "totalVotes",
      "outputs": [
        {
          "internalType": "uint256",
          "name": "",
          "type": "uint256"
        }
      ],
      "stateMutability": "view",
      "type": "function"
    },
    {
      "inputs": [
        {
          "internalType": "uint256",
          "name": "candidateId",
          "type": "uint256"
        }
      ],
      "name": "vote",
      "outputs": [],
      "stateMutability": "nonpayable",
      "type": "function"
    },
    {
      "inputs": [
        {
          "internalType": "address",
          "name": "",
          "type": "address"
        }
      ],
      "name": "voters",
      "outputs": [
        {
          "internalType": "bool",
          "name": "isRegistered",
          "type": "bool"
        },
        {
          "internalType": "bool",
          "name": "hasVoted",
          "type": "bool"
        },
        {
          "internalType": "uint256",
          "name": "vote",
          "type": "uint256"
        }
      ],
      "stateMutability": "view",
      "type": "function"
    }
  ],
  "bytecode": "0x60806040523480156200001157600080fd5b50604051620014eb380380620014eb833981810160405281019062000037919062000313565b336000806101000a81548173ffffffffffffffffffffffffffffffffffffffff021916908373ffffffffffffffffffffffffffffffffffffffff16021790555060005b8151811015620001575760026040518060600160405280838152602001848481518110620000d1577f4e487b7100000000000000000000000000000000000000000000000000000000600052603260045260246000fd5b6020026020010151815260200160008152509080600181540180825580915050600190039060005260206000209060030201600090919091909150600082015181600001556020820151816001019080519060200190620001349291906200015f565b5060408201518160020155505080806200014e9062000464565b9150506200007a565b50506200053f565b8280546200016d906200042e565b90600052602060002090601f016020900481019282620001915760008555620001dd565b82601f10620001ac57805160ff1916838001178555620001dd565b82800160010185558215620001dd579182015b82811115620001dc578251825591602001919060010190620001bf565b5b509050620001ec9190620001f0565b5090565b5b808211156200020b576000816000905550600101620001f1565b5090565b60006200022662000220846200038c565b62000358565b9050808382526020820190508260005b858110156200026a57815185016200024f8882620002e6565b84526020840193506020830192505060018101905062000236565b5050509392505050565b60006200028b6200028584620003bb565b62000358565b905082815260208101848484011115620002a457600080fd5b620002b1848285620003f8565b509392505050565b600082601f830112620002cb57600080fd5b8151620002dd8482602086016200020f565b91505092915050565b600082601f830112620002f857600080fd5b81516200030a84826020860162000274565b91505092915050565b6000602082840312156200032657600080fd5b600082015167ffffffffffffffff8111156200034157600080fd5b6200034f84828501620002b9565b91505092915050565b6000604051905081810181811067ffffffffffffffff8211171562000382576200038162000510565b5b8060405250919050565b600067ffffffffffffffff821115620003aa57620003a962000510565b5b602082029050602081019050919050565b600067ffffffffffffffff821115620003d957620003d862000510565b5b601f19601f8301169050602081019050919050565b6000819050919050565b60005b8381101562000418578082015181840152602081019050620003fb565b8381111562000428576000848401525b50505050565b600060028204905060018216806200044757607f821691505b602082108114156200045e576200045d620004e1565b5b50919050565b60006200047182620003ee565b91507fffffffffffffffffffffffffffffffffffffffffffffffffffffffffffffffff821415620004a757620004a6620004b2565b5b600182019050919050565b7f4e487b7100000000000000000000000000000000000000000000000000000000600052601160045260246000fd5b7f4e487b7100000000000000000000000000000000000000000000000000000000600052602260045260246000fd5b7f4e487b7100000000000000000000000000000000000000000000000000000000600052604160045260246000fd5b610f9c806200054f6000396000f3fe608060405234801561001057600080fd5b50600436106100885760003560e01c80634717f97c1161005b5780634717f97c146101155780639ed1f25514610133578063a3ec138d14610165578063aab46b7f1461019757610088565b80630121b93f1461008d5780630d15fd77146100a95780633477ee2e146100c757806338db6dd3146100f9575b600080fd5b6100a760048036038101906100a291906108ea565b6101b5565b005b6100b1610438565b6040516100be9190610d14565b60405180910390f35b6100e160048036038101906100dc91906108ea565b61043e565b6040516100f093929190610d2f565b60405180910390f35b610113600480360381019061010e91906108c1565b610500565b005b61011d61067b565b60405161012a9190610c1b565b60405180910390f35b61014d600480360381019061014891906108c1565b610780565b60405161015c93929190610c3d565b60405180910390f35b61017f600480360381019061017a91906108c1565b61082f565b60405161018e93929190610c3d565b60405180910390f35b61019f610873565b6040516101ac9190610c00565b60405180910390f35b600160003373ffffffffffffffffffffffffffffffffffffffff1673ffffffffffffffffffffffffffffffffffffffff16815260200190815260200160002060000160019054906101000a900460ff1615610245576040517f08c379a000000000000000000000000000000000000000000000000000000000815260040161023c90610cf4565b60405180910390fd5b600160003373ffffffffffffffffffffffffffffffffffffffff1673ffffffffffffffffffffffffffffffffffffffff16815260200190815260200160002060000160009054906101000a900460ff166102d4576040517f08c379a00000000000000000000000000000000000000000000000000000000081526004016102cb90610cb4565b60405180910390fd5b600280549050811061031b576040517f08c379a000000000000000000000000000000000000000000000000000000000815260040161031290610cd4565b60405180910390fd5b60018060003373ffffffffffffffffffffffffffffffffffffffff1673ffffffffffffffffffffffffffffffffffffffff16815260200190815260200160002060000160016101000a81548160ff02191690831515021790555080600160003373ffffffffffffffffffffffffffffffffffffffff1673ffffffffffffffffffffffffffffffffffffffff16815260200190815260200160002060010181905550600281815481106103f6577f4e487b7100000000000000000000000000000000000000000000000000000000600052603260045260246000fd5b9060005260206000209060030201600201600081548092919061041890610e80565b91905055506003600081548092919061043090610e80565b919050555050565b60035481565b6002818154811061044e57600080fd5b906000526020600020906003020160009150905080600001549080600101805461047790610e4e565b80601f01602080910402602001604051908101604052809291908181526020018280546104a390610e4e565b80156104f05780601f106104c5576101008083540402835291602001916104f0565b820191906000526020600020905b8154815290600101906020018083116104d357829003601f168201915b5050505050908060020154905083565b60008054906101000a900473ffffffffffffffffffffffffffffffffffffffff1673ffffffffffffffffffffffffffffffffffffffff163373ffffffffffffffffffffffffffffffffffffffff161461058e576040517f08c379a000000000000000000000000000000000000000000000000000000000815260040161058590610c74565b60405180910390fd5b600160008273ffffffffffffffffffffffffffffffffffffffff1673ffffffffffffffffffffffffffffffffffffffff16815260200190815260200160002060000160009054906101000a900460ff161561061e576040517f08c379a000000000000000000000000000000000000000000000000000000000815260040161061590610c94565b60405180910390fd5b60018060008373ffffffffffffffffffffffffffffffffffffffff1673ffffffffffffffffffffffffffffffffffffffff16815260200190815260200160002060000160006101000a81548160ff02191690831515021790555050565b60606002805480602002602001604051908101604052809291908181526020016000905b828210156107775783829060005260206000209060030201604051806060016040529081600082015481526020016001820180546106dc90610e4e565b80601f016020809104026020016040519081016040528092919081815260200182805461070890610e4e565b80156107555780601f1061072a57610100808354040283529160200191610755565b820191906000526020600020905b81548152906001019060200180831161073857829003601f168201915b505050505081526020016002820154815250508152602001906001019061069f565b50505050905090565b600080600080600160008673ffffffffffffffffffffffffffffffffffffffff1673ffffffffffffffffffffffffffffffffffffffff1681526020019081526020016000206040518060600160405290816000820160009054906101000a900460ff161515151581526020016000820160019054906101000a900460ff161515151581526020016001820154815250509050806000015181602001518260400151935093509350509193909250565b60016020528060005260406000206000915090508060000160009054906101000a900460ff16908060000160019054906101000a900460ff16908060010154905083565b60008054906101000a900473ffffffffffffffffffffffffffffffffffffffff1681565b6000813590506108a681610f38565b92915050565b6000813590506108bb81610f4f565b92915050565b6000602082840312156108d357600080fd5b60006108e184828501610897565b91505092915050565b6000602082840312156108fc57600080fd5b600061090a848285016108ac565b91505092915050565b600061091f8383610b92565b905092915050565b61093081610dd3565b82525050565b600061094182610d7d565b61094b8185610da0565b93508360208202850161095d85610d6d565b8060005b85811015610999578484038952815161097a8582610913565b945061098583610d93565b925060208a01995050600181019050610961565b50829750879550505050505092915050565b6109b481610de5565b82525050565b60006109c582610d88565b6109cf8185610db1565b93506109df818560208601610e1b565b6109e881610f27565b840191505092915050565b60006109fe82610d88565b610a088185610dc2565b9350610a18818560208601610e1b565b610a2181610f27565b840191505092915050565b6000610a39602f83610dc2565b91507f4f6e6c7920656c656374696f6e20636f6d6d697373696f6e2063616e2063616c60008301527f6c20746869732066756e6374696f6e00000000000000000000000000000000006020830152604082019050919050565b6000610a9f601b83610dc2565b91507f566f74657220697320616c7265616479207265676973746572656400000000006000830152602082019050919050565b6000610adf601e83610dc2565b91507f596f75206d7573742062652061207265676973746572656420766f74657200006000830152602082019050919050565b6000610b1f601483610dc2565b91507f496e76616c69642063616e6469646174652049440000000000000000000000006000830152602082019050919050565b6000610b5f601683610dc2565b91507f596f75206861766520616c726561647920766f746564000000000000000000006000830152602082019050919050565b6000606083016000830151610baa6000860182610be2565b5060208301518482036020860152610bc282826109ba565b9150506040830151610bd76040860182610be2565b508091505092915050565b610beb81610e11565b82525050565b610bfa81610e11565b82525050565b6000602082019050610c156000830184610927565b92915050565b60006020820190508181036000830152610c358184610936565b905092915050565b6000606082019050610c5260008301866109ab565b610c5f60208301856109ab565b610c6c6040830184610bf1565b949350505050565b60006020820190508181036000830152610c8d81610a2c565b9050919050565b60006020820190508181036000830152610cad81610a92565b9050919050565b60006020820190508181036000830152610ccd81610ad2565b9050919050565b60006020820190508181036000830152610ced81610b12565b9050919050565b60006020820190508181036000830152610d0d81610b52565b9050919050565b6000602082019050610d296000830184610bf1565b92915050565b6000606082019050610d446000830186610bf1565b8181036020830152610d5681856109f3565b9050610d656040830184610bf1565b949350505050565b6000819050602082019050919050565b600081519050919050565b600081519050919050565b6000602082019050919050565b600082825260208201905092915050565b600082825260208201905092915050565b600082825260208201905092915050565b6000610dde82610df1565b9050919050565b60008115159050919050565b600073ffffffffffffffffffffffffffffffffffffffff82169050919050565b6000819050919050565b60005b83811015610e39578082015181840152602081019050610e1e565b83811115610e48576000848401525b50505050565b60006002820490506001821680610e6657607f821691505b60208210811415610e7a57610e79610ef8565b5b50919050565b6000610e8b82610e11565b91507fffffffffffffffffffffffffffffffffffffffffffffffffffffffffffffffff821415610ebe57610ebd610ec9565b5b600182019050919050565b7f4e487b7100000000000000000000000000000000000000000000000000000000600052601160045260246000fd5b7f4e487b7100000000000000000000000000000000000000000000000000000000600052602260045260246000fd5b6000601f19601f8301169050919050565b610f4181610dd3565b8114610f4c57600080fd5b50565b610f5881610e11565b8114610f6357600080fd5b5056fea2646970667358221220d8aa6765bfcf1b0f50d190d16945aeee17d57e7dd9a3c08f14edbfada86edb6464736f6c63430008000033",
  "linkReferences": {},
  "deployedLinkReferences": {}
}